{
  "_format": "hh3-artifact-1",
  "contractName": "ChainGuard",
  "sourceName": "contracts/ChainGuard.sol",
  "abi": [
    {
      "anonymous": false,
      "inputs": [
        {
          "indexed": false,
          "internalType": "string",
          "name": "cid",
          "type": "string"
        },
        {
          "indexed": true,
          "internalType": "address",
          "name": "owner",
          "type": "address"
        },
        {
          "indexed": false,
          "internalType": "bool",
          "name": "isPublic",
          "type": "bool"
        }
      ],
      "name": "EvidenceStored",
      "type": "event"
    },
    {
      "inputs": [
        {
          "internalType": "string",
          "name": "",
          "type": "string"
        }
      ],
      "name": "evidences",
      "outputs": [
        {
          "internalType": "string",
          "name": "cid",
          "type": "string"
        },
        {
          "internalType": "uint256",
          "name": "timestamp",
          "type": "uint256"
        },
        {
          "internalType": "address",
          "name": "owner",
          "type": "address"
        },
        {
          "internalType": "bool",
          "name": "isPublic",
          "type": "bool"
        }
      ],
      "stateMutability": "view",
      "type": "function"
    },
    {
      "inputs": [],
      "name": "getPublicFeed",
      "outputs": [
        {
          "internalType": "string[]",
          "name": "",
          "type": "string[]"
        }
      ],
      "stateMutability": "view",
      "type": "function"
    },
    {
      "inputs": [
        {
          "internalType": "uint256",
          "name": "",
          "type": "uint256"
        }
      ],
      "name": "publicCIDs",
      "outputs": [
        {
          "internalType": "string",
          "name": "",
          "type": "string"
        }
      ],
      "stateMutability": "view",
      "type": "function"
    },
    {
      "inputs": [
        {
          "internalType": "string",
          "name": "_cid",
          "type": "string"
        },
        {
          "internalType": "bool",
          "name": "_isPublic",
          "type": "bool"
        }
      ],
      "name": "storeEvidence",
      "outputs": [],
      "stateMutability": "nonpayable",
      "type": "function"
    }
  ],
  "bytecode": "0x6080604052348015600e575f5ffd5b506108aa8061001c5f395ff3fe608060405234801561000f575f5ffd5b506004361061004a575f3560e01c80630b525bce1461004e57806329e42f771461006c5780634dd630301461008c578063a89368d8146100af575b5f5ffd5b6100566100c4565b6040516100639190610504565b60405180910390f35b61007f61007a366004610567565b610198565b604051610063919061057e565b61009f61009a366004610636565b61023e565b6040516100639493929190610670565b6100c26100bd3660046106a9565b610305565b005b60606001805480602002602001604051908101604052809291908181526020015f905b8282101561018f578382905f5260205f20018054610104906106fc565b80601f0160208091040260200160405190810160405280929190818152602001828054610130906106fc565b801561017b5780601f106101525761010080835404028352916020019161017b565b820191905f5260205f20905b81548152906001019060200180831161015e57829003601f168201915b5050505050815260200190600101906100e7565b50505050905090565b600181815481106101a7575f80fd5b905f5260205f20015f9150905080546101bf906106fc565b80601f01602080910402602001604051908101604052809291908181526020018280546101eb906106fc565b80156102365780601f1061020d57610100808354040283529160200191610236565b820191905f5260205f20905b81548152906001019060200180831161021957829003601f168201915b505050505081565b80516020818301810180515f82529282019190930120915280548190610263906106fc565b80601f016020809104026020016040519081016040528092919081815260200182805461028f906106fc565b80156102da5780601f106102b1576101008083540402835291602001916102da565b820191905f5260205f20905b8154815290600101906020018083116102bd57829003601f168201915b5050505060018301546002909301549192916001600160a01b0381169150600160a01b900460ff1684565b5f82511161034c5760405162461bcd60e51b815260206004820152600f60248201526e10d251081a5cc81c995c5d5a5c9959608a1b60448201526064015b60405180910390fd5b5f8260405161035b9190610734565b9081526020016040518091039020600101545f146103bb5760405162461bcd60e51b815260206004820152601760248201527f45766964656e636520616c7265616479206578697374730000000000000000006044820152606401610343565b604080516080810182528381524260208201523381830152821515606082015290515f906103ea908590610734565b908152604051908190036020019020815181906104079082610796565b50602082015160018201556040820151600290910180546060909301511515600160a01b026001600160a81b03199093166001600160a01b0390921691909117919091179055801561048f576001805480820182555f919091527fb10e2d527612073b26eecdfd717e6a320cf44b4afac2b0732d9fcbe2b7fa0cf60161048d8382610796565b505b336001600160a01b03167f4ed3c8763687133ce3a868778ce2678a783040853297e343fc2401df4ac3d67a83836040516104ca929190610851565b60405180910390a25050565b5f81518084528060208401602086015e5f602082860101526020601f19601f83011685010191505092915050565b5f602082016020835280845180835260408501915060408160051b8601019250602086015f5b8281101561055b57603f198786030184526105468583516104d6565b9450602093840193919091019060010161052a565b50929695505050505050565b5f60208284031215610577575f5ffd5b5035919050565b602081525f61059060208301846104d6565b9392505050565b634e487b7160e01b5f52604160045260245ffd5b5f82601f8301126105ba575f5ffd5b813567ffffffffffffffff8111156105d4576105d4610597565b604051601f8201601f19908116603f0116810167ffffffffffffffff8111828210171561060357610603610597565b60405281815283820160200185101561061a575f5ffd5b816020850160208301375f918101602001919091529392505050565b5f60208284031215610646575f5ffd5b813567ffffffffffffffff81111561065c575f5ffd5b610668848285016105ab565b949350505050565b608081525f61068260808301876104d6565b6020830195909552506001600160a01b039290921660408301521515606090910152919050565b5f5f604083850312156106ba575f5ffd5b823567ffffffffffffffff8111156106d0575f5ffd5b6106dc858286016105ab565b925050602083013580151581146106f1575f5ffd5b809150509250929050565b600181811c9082168061071057607f821691505b60208210810361072e57634e487b7160e01b5f52602260045260245ffd5b50919050565b5f82518060208501845e5f920191825250919050565b601f82111561079157805f5260205f20601f840160051c8101602085101561076f5750805b601f840160051c820191505b8181101561078e575f815560010161077b565b50505b505050565b815167ffffffffffffffff8111156107b0576107b0610597565b6107c4816107be84546106fc565b8461074a565b6020601f8211600181146107f6575f83156107df5750848201515b5f19600385901b1c1916600184901b17845561078e565b5f84815260208120601f198516915b828110156108255787850151825560209485019460019092019101610805565b508482101561084257868401515f19600387901b60f8161c191681555b50505050600190811b01905550565b604081525f61086360408301856104d6565b90508215156020830152939250505056fea2646970667358221220e21fedf51189e8aae9fb38f053bda36161c462bd2c257d4e4d4b181d7fa00d7364736f6c634300081c0033",
  "linkReferences": {},
  "deployedLinkReferences": {},
  "immutableReferences": {},
  "inputSourceName": "project/contracts/ChainGuard.sol",
  "buildInfoId": "solc-0_8_28-2b1270265a5690009ece14bac4df99218dcf897c"
}